:1000000019C02BC02AC029C028C027C026C025C0BF
:1000100024C023C022C021C020C01FC01EC01DC0DC
:100020001CC01BC01AC019C018C017C016C015C00C
:1000300014C013C011241FBECFEFD4E0DEBFCDBF6C
:1000400011E0A0E0B1E0EEE3F2E002C005900D9215
:10005000A830B107D9F739D0F0C0D2CF209A81E0CB
:1000600085B9089594B181E0982794B995B189270D
:1000700085B9089550981BB808959AB181E09827E2
:100080009AB99BB189278BB90895E8DFF3CFCF9355
:10009000DF9380917A00806180937A0080917A006A
:1000A000806480937A0080917A0084FFFCCF8091F5
:1000B0007800909179009C0140E050E060E070E0B1
:1000C00080E090E0DF91CF910895CF93DF93CDB79B
:1000D000DEB727970FB6F894DEBF0FBECDBFD5DFD2
:1000E00080E480937C0087E880937A0081E08093AD
:1000F0007E008E831D82A12CB12CC12CD12CE12C31
:10010000F12C00E010E019821A821B821C82912CD3
:10011000812C712C612CBBDF2C3D314041055105F8
:10012000610571058105910509F0D0F48FE19EE428
:100130000197F1F700C00000AADF2C3D31404105D6
:100140005105610571058105910551F048F08ADF7F
:1001500094DF8FE19EE40197F1F700C00000D3CF58
:1001600029813A814B815C81692D782D872D962DCF
:10017000A1E04BD019012A01B62FA72FF82F9F839A
:100180002F30374241055105610571058105910503
:1001900009F040F429823A824B825C824D017F2E25
:1001A0006F80B9CF2E813D81932F990F990B492FE5
:1001B000592F692F792F892F1FD059016A017B018F
:1001C0008C01283EE3E03E074105510561057105BC
:1001D0008105910539F446DF50DF8FEF8E839FEF65
:1001E0009D8399CFA0E01DD009F095CF3BDF45DF7F
:1001F000E1E0EE831D828FCF2A0D3B1D4C1D5D1D5E
:100200006E1D7F1D801F911F08950024A7FD00947F
:100210002A0F301D401D501D601D701D801D901D3A
:1002200008950024A7FD00942A17300540055005C5
:0E02300060057005800590050895F894FFCFD5
:08023E00DD01000000000000DA
:00000001FF
